:020000040800F2
:1000000000280020A5120008C5100008CB10000829
:10001000D1100008D7100008DD1000080000000013
:10002000000000000000000000000000E3100008D5
:10003000EF10000800000000FB1000080711000886
:10004000ED120008ED120008ED120008ED12000894
:10005000ED120008ED120008ED120008ED12000884
:10006000ED120008ED120008ED120008ED12000874
:10007000ED120008ED120008ED120008ED12000864
:10008000ED120008ED120008ED120008ED12000854
:10009000ED120008ED120008ED120008ED12000844
:1000A000ED120008ED120008ED120008ED12000834
:1000B00015110008ED12000800000000ED12000804
:1000C000ED1200080000000000000000ED12000822
:1000D00000000000ED120008ED1200080000000012
:1000E000ED120008ED120008ED12000800000000FB
:1000F0000000000000000000000000000000000000
:0C01000000000000000000005FF808F1A3
:10010C0010B5054C237833B9044B13B10448AFF345
:10011C0000800123237010BD24000020000000008B
:10012C009828000808B5034B1BB103490348AFF3EB
:10013C00008008BD0000000028000020982800085E
:10014C0080B500AFA24B1B68013B042B00F234813D
:10015C0001A252F823F000BF79010008A1010008A8
:10016C002B020008B50200083D030008984B022240
:10017C001A60984B1B684FF47A7202FB03F3184613
:10018C0000F0D2FF4FF47A7001F004F8002000F078
:10019C0001FB1AE1012000F08DFD032000F0CCFDE5
:1001AC008D4B1B68012B0FD1894B03221A608B4B93
:1001BC001B684FF47A7202FB03F3184600F0B4FF8D
:1001CC004FF47A7000F0E6FF854B1B68012B1BD1B6
:1001DC00844B1B685A1E83490A607E4A1268511E62
:1001EC007C4801601146184600F0EEFA794B1B680A
:1001FC00002B05D1774B03221A607A4B02221A602E
:10020C004FF47A7000F0C6FF002000F0C3FA0346EA
:10021C00012B40F0D3806E4B0B221A60CEE00120F4
:10022C0000F048FD022000F087FD6B4B1B68012B92
:10023C000FD1674B04221A60664B1B684FF47A721D
:10024C0002FB03F3184600F06FFF4FF47A7000F0D6
:10025C00A1FF634B1B68012B1BD1624B1B685A1E01
:10026C0060490A605D4A1268511E5C480160114683
:10027C00184600F0A9FA594B1B68002B05D1574BB7
:10028C0002221A60574B05221A604FF47A7000F064
:10029C0081FF002000F07EFA0346012B40F0908095
:1002AC004B4B0B221A608BE0032000F003FD012066
:1002BC0000F042FD484B1B68012B0FD1444B05222B
:1002CC001A60464B1B684FF47A7202FB03F3184614
:1002DC0000F02AFF4FF47A7000F05CFF404B1B6873
:1002EC00012B1BD13B4B1B685A1E3A490A603D4AF5
:1002FC001268511E3B4801601146184600F064FA22
:10030C00344B1B68002B05D1324B03221A60354B42
:10031C0002221A604FF47A7000F03CFF002000F0CB
:10032C0039FA0346012B4DD1294B0B221A6049E0B7
:10033C00022000F0BFFC012000F0FEFC264B1B68E5
:10034C00012B0FD1224B02221A60224B1B684FF457
:10035C007A7202FB03F3184600F0E6FE4FF47A7053
:10036C0000F018FF1E4B1B68012B1BD11B4B1B688D
:10037C005A1E1A490A601B4A1268511E194801601C
:10038C001146184600F020FA144B1B68002B05D1BF
:10039C00124B02221A60134B05221A604FF47A702A
:1003AC0000F0F8FE002000F0F5F90346012B0BD10C
:1003BC00074B0B221A6007E000BF06E000BF04E009
:1003CC0000BF02E000BF00E000BF00BF80BD00BF67
:1003DC0040000020080000207400002004000020D1
:1003EC007C0000200000002080B500AF9F4B1B68F4
:1003FC000A3B032B00F2378101A252F823F000BF15
:10040C001D0400086304000817050008C305000854
:10041C00964B01221A60964B1B684FF47A7202FBC2
:10042C0003F3184600F080FE4FF47A7000F0B2FE31
:10043C00002000F0AFF90346012B40F013818B4BE9
:10044C000B221A604FF4FA7000F06EFE4FF47A70C3
:10045C0000F0A0FE06E1012000F02CFC012000F0D1
:10046C006BFC844B1B68012B0BD10421824801F0DF
:10047C0052FA2021804801F04EFA4FF4FA7000F045
:10048C0053FE002000F086F90346012B0AD1774B6E
:10049C000C221A604FF4FA7000F046FE4FF47A709A
:1004AC0000F078FE012000F075F90346012B11D104
:1004BC00724B1B680133714A1360704B1B681946F1
:1004CC00012000F081F96D4B1B68632B02DD6B4B37
:1004DC0000221A60022000F05DF90346012B03D1C3
:1004EC00664B1B68664A1360664B1B68012B0CD16C
:1004FC00634B1B685A1E62490A601946012000F0C2
:10050C0063F94FF47A7000F045FE022000F0D2FB44
:10051C00022000F011FC574B1B68012B07D108215E
:10052C00554801F0F8F94021534801F0F4F9002046
:10053C0000F030F90346012B0AD14C4B0D221A6006
:10054C004FF4FA7000F0F0FD4FF47A7000F022FED8
:10055C00012000F01FF90346012B11D1474B1B68FA
:10056C000133464A1360484B1B681946022000F0C1
:10057C002BF9454B1B68632B02DD434B00221A60A1
:10058C00022000F007F90346012B03D13E4B1B68F8
:10059C003E4A13603B4B1B68012B0CD13B4B1B6839
:1005AC005A1E3A490A601946022000F00DF94FF420
:1005BC007A7000F0EFFD022000F07CFB022000F0CE
:1005CC00BBFB2C4B1B68012B07D110212A4801F0D7
:1005DC00A2F98021284801F09EF9002000F0DAF8F9
:1005EC000346012B0AD1214B0A221A604FF4FA70F0
:1005FC0000F09AFD4FF47A7000F0CCFD012000F071
:10060C00C9F80346012B11D1214B1B680133204A39
:10061C0013601F4B1B681946022000F0D5F81C4BC9
:10062C001B68632B02DD1A4B00221A60022000F0BB
:10063C00B1F80346012B03D1154B1B680C4A136010
:10064C00104B1B68012B0ED1094B1B685A1E084915
:10065C000A601946022000F0B7F84FF47A7000F0E7
:10066C0099FD00E000BF00BF80BD00BF400000202E
:10067C000800002074000020000801400C0000203D
:10068C00000000207C00002010000020040000204E
:10069C001400002090B583B000AF0023FB7164E020
:1006AC00FA79FB793549895C354AD154FB79022BAF
:1006BC001CD0022B25DC002B02D0012B0BD020E010
:1006CC00FC794FF480712F4801F0F6F803461A4676
:1006DC002A4B1A5515E0FC794FF40071294801F0AA
:1006EC00EBF803461A46254B1A550AE0FC794FF4F1
:1006FC008061244801F0E0F803461A461F4B1A5556
:10070C0000BFFB791D4AD25CFB791D49CB5C9A4238
:10071C0005D1FA79FB791949895C1B4AD154FB79CB
:10072C00194AD35C002B14D1FB79184A32F81330D8
:10073C00632B09D8FB79154A32F81320013291B298
:10074C00124A22F813100DE0FB79114A0121D15401
:10075C0008E0FB790D4A002122F81310FB790C4AB2
:10076C000021D154FB790133FB71FB79022B97D912
:10077C0000BF00BF0C37BD4690BD00BF4800002035
:10078C004C000020000801404400002054000020D0
:10079C005000002080B483B000AF0346FB71FB799E
:1007AC00022B01D9002307E0FB79064AD35C002B0E
:1007BC000CBF01230023DBB218460C37BD4680BCAE
:1007CC00704700BF4400002080B483B000AF786055
:1007DC0039603B68092B06DC214A3B68D360204B0F
:1007EC0000229A6016E039681E4B83FB01239A1095
:1007FC00CB17D21A13469B0013445B00CA1A184B32
:10080C00DA603B68174A82FB03129210DB17D31A8B
:10081C00134A93607B68092B06DC114A7B68536092
:10082C000F4B00221A6016E079680E4B83FB0123F4
:10083C009A10CB17D21A13469B0013445B00CA1AAA
:10084C00074B5A607B68074A82FB03129210DB1736
:10085C00D31A034A136000BF0C37BD4680BC7047E7
:10086C005C0000206766666680B582B000AF786079
:10087C007B68032B00F2848001A252F823F000BFA6
:10088C009D080008D908000815090008510900083E
:10089C0000224FF400613D4801F025F801224FF48D
:1008AC0080513A4801F01FF801224FF400513748AB
:1008BC0001F019F801224FF48041344801F013F88B
:1008CC00334B1B68184600F065F85AE001224FF4D0
:1008DC0000612E4801F007F800224FF480512B489C
:1008EC0001F001F801224FF40051284800F0FBFF01
:1008FC0001224FF48041254800F0F5FF244B5B6842
:10090C00184600F047F83CE001224FF400611F4804
:10091C0000F0E9FF01224FF480511C4800F0E3FF86
:10092C0000224FF40051194800F0DDFF01224FF472
:10093C008041164800F0D7FF154B9B68184600F015
:10094C0029F81EE001224FF40061104800F0CBFFA3
:10095C0001224FF480510D4800F0C5FF01224FF4E5
:10096C0000510A4800F0BFFF00224FF480410748B5
:10097C0000F0B9FF064BDB68184600F00BF800E0FE
:10098C0000BF00BF0837BD4680BD00BF0008014056
:10099C005C00002080B582B000AF78607B68012BD2
:1009AC0023D101220121C24800F09DFF0022022127
:1009BC00BF4800F098FF00220421BD4800F093FFCF
:1009CC0001220821BA4800F08EFF01221021B848FC
:1009DC0000F089FF01222021B54800F084FF01229C
:1009EC004021B34800F07FFF5DE17B68022B23D1EF
:1009FC0000220121AE4800F076FF00220221AC4813
:100A0C0000F071FF01220421A94800F06CFF0022C4
:100A1C000821A74800F067FF00221021A44800F02D
:100A2C0062FF01222021A24800F05DFF002240213C
:100A3C009F4800F058FF36E17B68032B23D100223E
:100A4C0001219B4800F04FFF00220221984800F042
:100A5C004AFF00220421964800F045FF002208219D
:100A6C00934800F040FF01221021914800F03BFF19
:100A7C00012220218E4800F036FF002240218C48B4
:100A8C0000F031FF0FE17B68042B23D101220121FF
:100A9C00874800F028FF00220221854800F023FF40
:100AAC0000220421824800F01EFF01220821804808
:100ABC0000F019FF012210217D4800F014FF0022E4
:100ACC0020217B4800F00FFF00224021784800F0E5
:100ADC000AFFE8E07B68052B23D100220121744832
:100AEC0000F001FF01220221714800F0FCFE0022FF
:100AFC0004216F4800F0F7FE002208216C4800F03A
:100B0C00F2FE012210216A4800F0EDFE00222021A5
:100B1C00674800F0E8FE00224021654800F0E3FE43
:100B2C00C1E07B68062B23D100220121604800F034
:100B3C00DAFE012202215E4800F0D5FE00220421DB
:100B4C005B4800F0D0FE00220821594800F0CBFE93
:100B5C0000221021564800F0C6FE002220215448E5
:100B6C0000F0C1FE00224021514800F0BCFE9AE08A
:100B7C007B68072B23D1002201214D4800F0B3FEE6
:100B8C00002202214A4800F0AEFE0022042148480F
:100B9C0000F0A9FE01220821454800F0A4FE012224
:100BAC001021434800F09FFE01222021404800F014
:100BBC009AFE012240213E4800F095FE73E07B68CE
:100BCC00082B23D100220121394800F08CFE002291
:100BDC000221374800F087FE00220421344800F03F
:100BEC0082FE00220821324800F07DFE00221021F6
:100BFC002F4800F078FE002220212D4800F073FED3
:100C0C00002240212A4800F06EFE4CE07B68092B44
:100C1C0023D100220121264800F065FE002202218A
:100C2C00234800F060FE00220421214800F05BFE06
:100C3C00002208211E4800F056FE012210211C48FB
:100C4C0000F051FE00222021194800F04CFE002239
:100C5C004021174800F047FE25E07B68002B22D18D
:100C6C0000220121124800F03EFE00220221104811
:100C7C0000F039FE002204210D4800F034FE002261
:100C8C0008210B4800F02FFE00221021084800F02C
:100C9C002AFE00222021064800F025FE01224021D8
:100CAC00034800F020FE00BF0837BD4680BD00BFE2
:100CBC00000C014080B582B000AF78607B68012BDE
:100CCC000FD1002204211B4800F00DFE0122082147
:100CDC00184800F008FE01221021164800F003FE0F
:100CEC0024E07B68022B0FD101220421114800F073
:100CFC00FAFD002208210F4800F0F5FD0122102119
:100D0C000C4800F0F0FD11E07B68032B0ED10122A2
:100D1C000421084800F0E7FD01220821054800F0F5
:100D2C00E2FD00221021034800F0DDFD00BF083772
:100D3C00BD4680BD0008014080B582B000AF786030
:100D4C007B68012B0FD1002220211B4800F0CBFD2A
:100D5C0001224021184800F0C6FD012280211648CE
:100D6C0000F0C1FD24E07B68022B0FD10122202171
:100D7C00114800F0B8FD002240210F4800F0B3FDEF
:100D8C00012280210C4800F0AEFD11E07B68032BA2
:100D9C000ED101222021084800F0A5FD012240219E
:100DAC00054800F0A0FD00228021034800F09BFDC7
:100DBC0000BF0837BD4680BD0008014080B500AFBC
:100DCC000B4B1B68012B11D10A4B1B685A1C094990
:100DDC000A601846FFF748FD064B1B68032B02DD23
:100DEC00044B00221A60FA2000F00AFA00BF80BD02
:100DFC00840000206C00002080B500AF00F072FA77
:100E0C0000F014F800F09AF800F04CF8FA2000F01A
:100E1C00F7F9054B01221A60FFF792F9FFF7E4FA94
:100E2C00FFF7CCFFF8E700BF4000002080B590B082
:100E3C0000AF07F1180328220021184601F01EFD0F
:100E4C003B1D00221A605A609A60DA601A61022314
:100E5C00BB610123BB621023FB6200237B6307F1A0
:100E6C001803184600F070FD0346002B01D000F06B
:100E7C00C7F80F237B600023BB600023FB600023BB
:100E8C003B6100237B613B1D0021184600F0DCFF19
:100E9C000346002B01D000F0B3F800BF4037BD462D
:100EAC0080BD000080B586B000AF07F108030022BA
:100EBC001A605A609A60DA603B4600221A605A60E7
:100ECC001D4B4FF080421A601B4B41F63F725A602B
:100EDC00194B00229A60184B0922DA60164B00223B
:100EEC001A61154B00229A61134801F009F9034667
:100EFC00002B01D000F084F84FF48053BB6007F155
:100F0C00080319460C4801F052FA0346002B01D095
:100F1C0000F076F800233B6000237B603B461946CB
:100F2C00054801F01DFC0346002B01D000F068F8C9
:100F3C0000BF1837BD4680BD8800002080B586B044
:100F4C0000AF07F1080300221A605A609A60DA6059
:100F5C00284B9B69274A43F004039361254B9B69FB
:100F6C0003F004037B607B68224B9B69214A43F0AE
:100F7C00080393611F4B9B6903F008033B603B68BC
:100F8C00002247F6FC011C4800F0ADFC00227F213A
:100F9C001A4800F0A8FC47F6FC03BB600123FB6079
:100FAC0000233B6102237B6107F1080319461248B9
:100FBC0000F008FB7F23BB600123FB6000233B6137
:100FCC0002237B6107F1080319460C4800F0FAFA7A
:100FDC004FF4E063BB600023FB6001233B6107F12E
:100FEC0008031946044800F0EDFA00BF1837BD4657
:100FFC0080BD00BF0010024000080140000C014001
:10100C0080B400AF72B600BFFEE7000080B485B0BC
:10101C0000AF154B9B69144A43F001039361124BCB
:10102C009B6903F00103BB60BB680F4BDB690E4A85
:10103C0043F08053D3610C4BDB6903F080537B602E
:10104C007B680A4B5B68FB60FB6823F0E063FB602A
:10105C00FB6843F08063FB60044AFB68536000BF8D
:10106C001437BD4680BC70470010024000000140A0
:10107C0080B584B000AF78607B681B68B3F1804F9B
:10108C0013D10C4BDB690B4A43F00103D361094BC1
:10109C00DB6903F00103FB60FB68002200211C20CC
:1010AC0000F059FA1C2000F072FA00BF1037BD4650
:1010BC0080BD00BF0010024080B400AFFEE780B4DA
:1010CC0000AFFEE780B400AFFEE780B400AFFEE7F0
:1010DC0080B400AFFEE780B400AF00BFBD4680BC5B
:1010EC00704780B400AF00BFBD4680BC704780B471
:1010FC0000AF00BFBD4680BC704780B500AF00F0AC
:10110C0037F900BF80BD000080B500AF024801F088
:10111C0046F800BF80BD00BF8800002080B400AF3F
:10112C0000BFBD4680BC704780B483B000AF786010
:10113C007B68084A82FB03129210DB17D31A064A0B
:10114C001360064B00221A6000BF0C37BD4680BCF2
:10115C00704700BF67666666700000207400002050
:10116C0080B400AF094B1B68002B0BDD074B1B68D1
:10117C00013B064A1360054B1B68002B02DC044B39
:10118C0001221A6000BFBD4680BC70477000002071
:10119C007400002080B483B000AF78607B68084A8C
:1011AC0082FB03129210DB17D31A064A1360064B0C
:1011BC0000221A6000BF0C37BD4680BC704700BFD0
:1011CC0067666666780000207C00002080B400AF63
:1011DC00094B1B68002B0BDD074B1B68013B064AB8
:1011EC001360054B1B68002B02DC044B01221A60B8
:1011FC0000BFBD4680BC7047780000207C000020FA
:10120C0080B483B000AF78607B68084A82FB03121D
:10121C009210DB17D31A064A1360064B00221A6091
:10122C0000BF0C37BD4680BC704700BF6766666662
:10123C00800000207400002080B400AF094B1B68B4
:10124C00002B0BDD074B1B68013B064A1360054B5B
:10125C001B68002B02DC044B01221A6000BFBD4648
:10126C0080BC7047800000208400002080B582B0D4
:10127C0000AF78607B681B68B3F1804F07D1FFF734
:10128C0009FAFFF76DFFFFF7A1FFFFF7D5FF00BFCE
:10129C000837BD4680BD0000FFF740FF0B480C49E6
:1012AC000C4A002302E0D458C4500433C4188C42B6
:1012BC00F9D3094A094C002301E013600432A2421D
:1012CC00FBD301F0B7FAFFF797FD70470000002041
:1012DC0024000020DC28000824000020D40000207A
:1012EC00FEE7000080B500AF084B1B68074A43F0CF
:1012FC0010031360032000F023F90F2000F008F80E
:10130C00FFF784FE0023184680BD00BF002002407A
:10131C0080B582B000AF7860124B1A68124B1B7804
:10132C0019464FF47A73B3FBF1F3B2FBF3F318469F
:10133C0000F03BF90346002B01D001230EE07B6843
:10134C000F2B0AD8002279684FF0FF3000F003F918
:10135C00064A7B681360002300E001231846083717
:10136C00BD4680BD18000020200000201C0000207D
:10137C0080B400AF054B1B781A46054B1B68134411
:10138C00034A136000BFBD4680BC7047200000209C
:10139C00D000002080B400AF024B1B681846BD463D
:1013AC0080BC7047D000002080B485B000AF78605E
:1013BC007B6803F00703FB600C4BDB68BB60BA680F
:1013CC004FF6FF031340BB60FB681A02BB68134364
:1013DC0043F0BF6343F40033BB60044ABB68D36083
:1013EC0000BF1437BD4680BC704700BF00ED00E065
:1013FC0080B400AF044BDB681B0A03F007031846EC
:10140C00BD4680BC704700BF00ED00E080B483B0E7
:10141C0000AF0346FB7197F90730002B0BDBFB7910
:10142C0003F01F02064997F907305B09012000FA07
:10143C0002F241F8232000BF0C37BD4680BC704738
:10144C0000E100E080B483B000AF03463960FB716B
:10145C0097F90730002B0ADB3B68DAB20C4997F995
:10146C0007301201D2B20B4483F800230AE03B6828
:10147C00DAB20849FB7903F00F03043B1201D2B234
:10148C000B441A7600BF0C37BD4680BC704700BFBA
:10149C0000E100E000ED00E080B489B000AFF8603E
:1014AC00B9607A60FB6803F00703FB61FB69C3F169
:1014BC000703042B28BF0423BB61FB690433062BF1
:1014CC0002D9FB69033B00E000237B614FF0FF3244
:1014DC00BB6902FA03F3DA43BB681A407B699A4092
:1014EC004FF0FF317B6901FA03F3D9437B680B4062
:1014FC00134318462437BD4680BC704780B582B074
:10150C0000AF78607B68013BB3F1807F01D301238E
:10151C000FE00A4A7B68013B53600F214FF0FF300C
:10152C00FFF790FF054B00229A60044B07221A60CC
:10153C00002318460837BD4680BD00BF10E000E010
:10154C0080B582B000AF78607868FFF72DFF00BFE0
:10155C000837BD4680BD80B586B000AF0346B96084
:10156C007A60FB7300237B61FFF742FF78617A6836
:10157C00B9687869FFF790FF024697F90F3011466A
:10158C001846FFF75FFF00BF1837BD4680BD80B51A
:10159C0082B000AF0346FB7197F907301846FFF78E
:1015AC0035FF00BF0837BD4680BD80B582B000AFA7
:1015BC0078607868FFF7A2FF034618460837BD46E7
:1015CC0080BD000080B48BB000AF78603960002320
:1015DC007B6200233B6248E101227B6A02FA03F33F
:1015EC00FB613B681B68FA691340BB61BA69FB6914
:1015FC009A4240F037813B685B68A34A93425ED0C5
:10160C00A14A934275D8A14A934258D09F4A93421B
:10161C006FD89F4A934252D09D4A934269D89D4AB3
:10162C0093424CD09B4A934263D89B4A934246D0F8
:10163C00994A93425DD8122B2AD8122B59D801A261
:10164C0052F823F0CB160008A5160008B7160008B0
:10165C00F9160008FF160008FF160008FF16000810
:10166C00FF160008FF160008FF160008FF160008FA
:10167C00FF160008FF160008FF160008FF160008EA
:10168C00FF160008FF160008AD160008C11600086A
:10169C00824A934213D02CE03B68DB683B6229E022
:1016AC003B68DB6804333B6224E03B68DB6808334F
:1016BC003B621FE03B68DB680C333B621AE03B6823
:1016CC009B68002B02D104233B6213E03B689B68B0
:1016DC00012B05D108233B627B68FA691A6109E08A
:1016EC0008233B627B68FA695A6103E000233B6282
:1016FC0000E000BFBB69FF2B01D87B6801E07B6871
:10170C0004337B61BB69FF2B02D87B6A9B0002E030
:10171C007B6A083B9B003B617B691A680F213B6924
:10172C0001FA03F3DB431A40396A3B6901FA03F30C
:10173C001A437B691A603B685B6803F08053002B8B
:10174C0000F09080564B9B69554A43F0010393611E
:10175C00534B9B6903F00103BB60BB68514A7B6A26
:10176C009B08023352F82330FB607B6A03F00303BF
:10177C009B000F2202FA03F3DB43FA681340FB6071
:10178C007B68494A93420DD07B68484A934207D004
:10179C007B68474A934201D1022304E0032302E011
:1017AC00012300E000237A6A02F0030292009340C6
:1017BC00FA681343FB603B497B6A9B080233FA6867
:1017CC0041F823203B685B6803F48013002B06D0A0
:1017DC00384B9A683749BB6913438B6006E0354B2D
:1017EC009A68BB69DB43334913408B603B685B6889
:1017FC0003F40013002B06D02E4BDA682D49BB697D
:10180C001343CB6006E02B4BDA68BB69DB432949F9
:10181C001340CB603B685B6803F40033002B06D0AD
:10182C00244B5A682349BB6913434B6006E0214B98
:10183C005A68BB69DB431F4913404B603B685B68CC
:10184C0003F48033002B06D01A4B1A681949BB6974
:10185C0013430B6006E0174B1A68BB69DB43154951
:10186C0013400B607B6A01337B623B681A687B6AAE
:10187C0022FA03F3002B7FF4AFAE00BF00BF2C376E
:10188C00BD4680BC704700BF000032100000311014
:10189C000000221000002110000012100000111096
:1018AC00001002400000014000080140000C014003
:1018BC00001001400004014080B485B000AF786096
:1018CC000B467B807B689A687B881340002B02D088
:1018DC000123FB7301E00023FB73FB7B18461437D9
:1018EC00BD4680BC704780B483B000AF78600B46B7
:1018FC007B8013467B707B78002B03D07A887B68C7
:10190C001A6103E07B881A047B681A6100BF0C37EC
:10191C00BD4680BC704780B485B000AF78600B4684
:10192C007B807B68DB68FB607A88FB6813401A0459
:10193C00FB68D9437B880B401A437B681A6100BF54
:10194C001437BD4680BC704780B586B000AF786058
:10195C007B68002B01D101236CE27B681B6803F0D0
:10196C000103002B00F08780924B5B6803F00C03A3
:10197C00042B0CD08F4B5B6803F00C03082B12D19B
:10198C008C4B5B6803F48033B3F5803F0BD1894BF0
:10199C001B6803F40033002B6CD07B685B68002B56
:1019AC0068D1012346E27B685B68B3F5803F06D1C2
:1019BC00804B1B687F4A43F4803313602EE07B68B6
:1019CC005B68002B0CD17B4B1B687A4A23F4803369
:1019DC001360784B1B68774A23F4802313601DE057
:1019EC007B685B68B3F5A02F0CD1724B1B68714AF6
:1019FC0043F4802313606F4B1B686E4A43F48033AF
:101A0C0013600BE06B4B1B686A4A23F48033136042
:101A1C00684B1B68674A23F4802313607B685B6800
:101A2C00002B13D0FFF7B6FC386108E0FFF7B2FCCF
:101A3C0002463B69D31A642B01D90323FAE15D4BAF
:101A4C001B6803F40033002BF0D014E0FFF7A2FC6A
:101A5C00386108E0FFF79EFC02463B69D31A642B01
:101A6C0001D90323E6E1534B1B6803F40033002B2D
:101A7C00F0D100E000BF7B681B6803F00203002B71
:101A8C0063D04C4B5B6803F00C03002B0BD0494B21
:101A9C005B6803F00C03082B1CD1464B5B6803F40A
:101AAC008033002B16D1434B1B6803F00203002B31
:101ABC0005D07B681B69012B01D00123BAE13D4B9A
:101ACC001B6823F0F8027B685B69DB003949134320
:101ADC000B603AE07B681B69002B20D0364B01224F
:101AEC001A60FFF757FC386108E0FFF753FC024619
:101AFC003B69D31A022B01D903239BE12D4B1B68A5
:101B0C0003F00203002BF0D02A4B1B6823F0F802E1
:101B1C007B685B69DB00274913430B6015E0264BA0
:101B2C0000221A60FFF736FC386108E0FFF732FC40
:101B3C0002463B69D31A022B01D903237AE11D4BD0
:101B4C001B6803F00203002BF0D17B681B6803F0C9
:101B5C000803002B3AD07B689B69002B19D0174BDC
:101B6C0001221A60FFF716FC386108E0FFF712FC3F
:101B7C0002463B69D31A022B01D903235AE10D4BC0
:101B8C005B6A03F00203002BF0D0012000F09AFAFC
:101B9C001CE00A4B00221A60FFF7FCFB38610FE0D7
:101BAC00FFF7F8FB02463B69D31A022B08D9032333
:101BBC0040E100BF0010024000004242800442425B
:101BCC009E4B5B6A03F00203002BE9D17B681B6818
:101BDC0003F00403002B00F0A6800023FB75974B49
:101BEC00DB6903F08053002B0DD1944BDB69934AD6
:101BFC0043F08053D361914BDB6903F08053BB609E
:101C0C00BB680123FB758E4B1B6803F48073002BA0
:101C1C0018D18B4B1B688A4A43F480731360FFF70F
:101C2C00B9FB386108E0FFF7B5FB02463B69D31AF4
:101C3C00642B01D90323FDE0814B1B6803F48073F3
:101C4C00002BF0D07B68DB68012B06D17B4B1B6A29
:101C5C007A4A43F0010313622DE07B68DB68002BAA
:101C6C000CD1764B1B6A754A23F001031362734B3C
:101C7C001B6A724A23F0040313621CE07B68DB6866
:101C8C00052B0CD16D4B1B6A6C4A43F00403136299
:101C9C006A4B1B6A694A43F0010313620BE0674B02
:101CAC001B6A664A23F001031362644B1B6A634A86
:101CBC0023F0040313627B68DB68002B15D0FFF75D
:101CCC0069FB38610AE0FFF765FB02463B69D31AF2
:101CDC0041F28832934201D90323ABE0574B1B6A84
:101CEC0003F00203002BEED014E0FFF753FB386136
:101CFC000AE0FFF74FFB02463B69D31A41F28832E8
:101D0C00934201D9032395E04C4B1B6A03F0020369
:101D1C00002BEED1FB7D012B05D1484BDB69474AEB
:101D2C0023F08053D3617B68DB69002B00F081804A
:101D3C00424B5B6803F00C03082B61D07B68DB69BA
:101D4C00022B46D13F4B00221A60FFF723FB386170
:101D5C0008E0FFF71FFB02463B69D31A022B01D99F
:101D6C00032367E0354B1B6803F00073002BF0D1A5
:101D7C007B681B6AB3F5803F08D1304B5B6823F45A
:101D8C0000327B689B682D4913434B602B4B5B687F
:101D9C0023F474127B68196A7B685B6A0B432749CE
:101DAC0013434B60274B01221A60FFF7F3FA38619B
:101DBC0008E0FFF7EFFA02463B69D31A022B01D970
:101DCC00032337E01D4B1B6803F00073002BF0D08E
:101DDC002FE01C4B00221A60FFF7DCFA386108E098
:101DEC00FFF7D8FA02463B69D31A022B01D9032319
:101DFC0020E0124B1B6803F00073002BF0D118E0AD
:101E0C007B68DB69012B01D1012313E00B4B5B6871
:101E1C00FB60FB6803F480327B681B6A9A4206D134
:101E2C00FB6803F470127B685B6A9A4201D0012351
:101E3C0000E0002318461837BD4680BD0010024054
:101E4C00007000406000424280B584B000AF786002
:101E5C0039607B68002B01D10123D0E06A4B1B68F1
:101E6C0003F007033A689A4210D9674B1B6823F0BA
:101E7C00070265493B6813430B60634B1B6803F017
:101E8C0007033A689A4201D00123B8E07B681B68CB
:101E9C0003F00203002B20D07B681B6803F00403C3
:101EAC00002B05D0594B5B68584A43F4E0635360F0
:101EBC007B681B6803F00803002B05D0534B5B6851
:101ECC00524A43F460535360504B5B6823F0F0026A
:101EDC007B689B684D4913434B607B681B6803F020
:101EEC000103002B40D07B685B68012B07D1474B6B
:101EFC001B6803F40033002B15D101237FE07B68B2
:101F0C005B68022B07D1414B1B6803F00073002B5D
:101F1C0009D1012373E03D4B1B6803F00203002B36
:101F2C0001D101236BE0394B5B6823F003027B6822
:101F3C005B68364913434B60FFF72CFAF8600AE0F4
:101F4C00FFF728FA0246FB68D31A41F28832934213
:101F5C0001D9032353E02D4B5B6803F00C027B6823
:101F6C005B689B009A42EBD1274B1B6803F007037D
:101F7C003A689A4210D2244B1B6823F0070222497C
:101F8C003B6813430B60204B1B6803F007033A6854
:101F9C009A4201D0012332E07B681B6803F00403F2
:101FAC00002B08D0194B5B6823F4E0627B68DB687C
:101FBC00164913434B607B681B6803F00803002B26
:101FCC0009D0124B5B6823F460527B681B69DB0001
:101FDC000E4913434B6000F021F802460B4B5B6833
:101FEC001B0903F00F030A49CB5C22FA03F3094ADD
:101FFC001360094B1B681846FFF78AF90023184633
:10200C001037BD4680BD00BF0020024000100240CA
:10201C00B0280008180000201C00002080B487B0F5
:10202C0000AF0023FB600023BB6000237B61002317
:10203C007B6000233B611E4B5B68FB60FB6803F01D
:10204C000C03042B02D0082B03D027E0194B3B6167
:10205C0027E0FB689B0C03F00F03174AD35C7B60F3
:10206C00FB6803F48033002B10D0114B5B685B0CC6
:10207C0003F00103114AD35CBB607B680D4A02FB81
:10208C0003F2BB68B2FBF3F37B6104E07B680C4AA0
:10209C0002FB03F37B617B693B6102E0054B3B6117
:1020AC0000BF3B6918461C37BD4680BC704700BF5B
:1020BC000010024000127A00C0280008D028000846
:1020CC0000093D0080B485B000AF78600A4B1B68F6
:1020DC000A4AA2FB03235B0A7A6802FB03F3FB6048
:1020EC0000BFFB685A1EFA60002BF9D100BF00BF7D
:1020FC001437BD4680BC704718000020D34D6210C9
:10210C0080B582B000AF78607B68002B01D10123D1
:10211C0041E07B6893F83D30DBB2002B06D17B6845
:10212C00002283F83C207868FEF7A2FF7B6802222D
:10213C0083F83D207B681A687B6804331946104687
:10214C0000F020FA7B68012283F846207B6801228C
:10215C0083F83E207B68012283F83F207B680122B4
:10216C0083F840207B68012283F841207B680122A0
:10217C0083F842207B68012283F843207B6801228C
:10218C0083F844207B68012283F845207B68012278
:10219C0083F83D20002318460837BD4680BD80B526
:1021AC0082B000AF78607B681B681B6903F0020388
:1021BC00022B22D17B681B68DB6803F00203022B25
:1021CC001BD17B681B686FF002021A617B680122CD
:1021DC001A777B681B689B6903F00303002B03D001
:1021EC00786800F0B4F905E0786800F0A7F9786831
:1021FC0000F0B6F97B6800221A777B681B681B69B4
:10220C0003F00403042B22D17B681B68DB6803F00A
:10221C000403042B1BD17B681B686FF004021A614A
:10222C007B6802221A777B681B689B6903F44073F6
:10223C00002B03D0786800F08AF905E0786800F08C
:10224C007DF9786800F08CF97B6800221A777B683E
:10225C001B681B6903F00803082B22D17B681B68E1
:10226C00DB6803F00803082B1BD17B681B686FF03D
:10227C0008021A617B6804221A777B681B68DB6989
:10228C0003F00303002B03D0786800F060F905E03D
:10229C00786800F053F9786800F062F97B680022E6
:1022AC001A777B681B681B6903F01003102B22D173
:1022BC007B681B68DB6803F01003102B1BD17B6859
:1022CC001B686FF010021A617B6808221A777B6812
:1022DC001B68DB6903F44073002B03D0786800F0B3
:1022EC0036F905E0786800F029F9786800F038F9DB
:1022FC007B6800221A777B681B681B6903F001035B
:10230C00012B0ED17B681B68DB6803F00103012BEA
:10231C0007D17B681B686FF001021A617868FEF7C1
:10232C00A5FF7B681B681B6903F08003802B0ED113
:10233C007B681B68DB6803F08003802B07D17B680C
:10234C001B686FF080021A61786800F06AFA7B688B
:10235C001B681B6903F04003402B0ED17B681B6884
:10236C00DB6803F04003402B07D17B681B686FF0E0
:10237C0040021A61786800F0FCF87B681B681B69E6
:10238C0003F02003202B0ED17B681B68DB6803F065
:10239C002003202B07D17B681B686FF020021A6189
:1023AC00786800F035FA00BF0837BD4680BD80B5AF
:1023BC0084B000AF786039600023FB737B6893F8BE
:1023CC003C30012B01D10223B4E07B68012283F85D
:1023DC003C207B68022283F83D207B681B689B684D
:1023EC00BB60BB6823F07703BB60BB6823F47F43FF
:1023FC00BB607B681B68BA689A603B681B68B3F566
:10240C00005F3ED0B3F5005F00F28780B3F5805FCC
:10241C0000F08680B3F5805F7FD8702B1AD0702BBC
:10242C007BD8602B50D0602B77D8502B3CD0502BC6
:10243C0073D8402B58D0402B6FD8302B64D0302B16
:10244C006BD8202B60D0202B67D8002B5CD0102BA6
:10245C005AD062E07B6818683B6899683B685A6898
:10246C003B68DB6800F05DF97B681B689B68BB60B0
:10247C00BB6843F07703BB607B681B68BA689A60E3
:10248C004FE07B6818683B6899683B685A683B6802
:10249C00DB6800F046F97B681B689A687B681B68F0
:1024AC0042F480429A603CE07B6818683B6859684B
:1024BC003B68DB681A4600F0BDF87B681B6850214E
:1024CC00184600F014F92CE07B6818683B685968D2
:1024DC003B68DB681A4600F0DBF87B681B68602100
:1024EC00184600F004F91CE07B6818683B685968D2
:1024FC003B68DB681A4600F09DF87B681B6840213E
:10250C00184600F0F4F80CE07B681A683B681B680E
:10251C001946104600F0EBF803E00123FB7300E0D2
:10252C0000BF7B68012283F83D207B68002283F882
:10253C003C20FB7B18461037BD4680BD80B483B071
:10254C0000AF786000BF0C37BD4680BC704780B4CC
:10255C0083B000AF786000BF0C37BD4680BC7047BD
:10256C0080B483B000AF786000BF0C37BD4680BC30
:10257C00704780B483B000AF786000BF0C37BD46A5
:10258C0080BC704780B485B000AF786039607B68E0
:10259C001B68FB607B68254A934207D07B68B3F1CC
:1025AC00804F03D07B68224A934208D1FB6823F00A
:1025BC007003FB603B685B68FA681343FB607B68E5
:1025CC001A4A934207D07B68B3F1804F03D07B68E3
:1025DC00174A934208D1FB6823F44073FB603B68B5
:1025EC00DB68FA681343FB60FB6823F080023B68EE
:1025FC005B691343FB607B68FA681A603B689A68F6
:10260C007B68DA623B681A687B689A627B68074A67
:10261C00934203D13B681A697B681A637B68012279
:10262C005A6100BF1437BD4680BC7047002C014076
:10263C000004004080B487B000AFF860B9607A60E5
:10264C00FB681B6A7B61FB681B6A23F00102FB6859
:10265C001A62FB689B693B613B6923F0F0033B61A9
:10266C007B681B013A6913433B617B6923F00A03C6
:10267C007B617A69BB6813437B61FB683A699A6139
:10268C00FB687A691A6200BF1C37BD4680BC704774
:10269C0080B487B000AFF860B9607A60FB681B6AE1
:1026AC007B61FB681B6A23F01002FB681A62FB68F3
:1026BC009B693B613B6923F470433B617B681B0363
:1026CC003A6913433B617B6923F0A0037B61BB68D0
:1026DC001B017A6913437B61FB683A699A61FB6859
:1026EC007A691A6200BF1C37BD4680BC704780B443
:1026FC0085B000AF786039607B689B68FB60FB68D5
:10270C0023F07003FB603A68FB68134343F0070344
:10271C00FB607B68FA689A6000BF1437BD4680BCCA
:10272C00704780B487B000AFF860B9607A603B60E6
:10273C00FB689B687B617B6923F47F437B613B680F
:10274C001A027B681A43BB6813437A6913437B6193
:10275C00FB687A699A6000BF1C37BD4680BC704725
:10276C0080B485B000AF786039607B6893F83C30FA
:10277C00012B01D1022341E07B68012283F83C202C
:10278C007B68022283F83D207B681B685B68FB60DA
:10279C007B681B689B68BB60FB6823F07003FB6065
:1027AC003B681B68FA681343FB607B681B68FA681C
:1027BC005A607B681B68144A934209D07B681B687B
:1027CC00B3F1804F04D07B681B68104A93420CD144
:1027DC00BB6823F08003BB603B685B68BA6813433B
:1027EC00BB607B681B68BA689A607B68012283F8BF
:1027FC003D207B68002283F83C20002318461437C8
:10280C00BD4680BC704700BF002C01400004004056
:10281C0080B483B000AF786000BF0C37BD4680BC7D
:10282C00704780B483B000AF786000BF0C37BD46F2
:10283C0080BC704770B500260C4D0D4C641BA41069
:10284C00A64209D100F022F800260A4D0A4C641B5E
:10285C00A410A64205D170BD55F8043B984701362B
:10286C00EEE755F8043B98470136F2E7D428000808
:10287C00D4280008D4280008D828000803460244AD
:10288C00934200D1704703F8011BF9E7F8B500BF7C
:10289C00F8BC08BC9E467047F8B500BFF8BC08BC35
:0428AC009E4670478D
:1028B00000000000000000000102030406070809F0
:1028C00002030405060708090A0B0C0D0E0F101071
:0428D0000102000001
:0428D40031010008C6
:0428D8000D010008E6
:1028DC0005000000020000000300000005000000DD
:1028EC0002000000030000000024F40010000000AF
:0428FC0001000000D7
:04000005080012A538
:00000001FF
